:100000000C9472000C947E000C947E000C947E0084
:100010000C947E000C947E000C947E000C947E0068
:100020000C947E000C947E000C947E000C947E0058
:100030000C947E000C94AC160C94DA160C943D16BD
:100040000C947E000C9408180C9439180C947E00C3
:100050000C9495170C9454150C9482150C94E5147B
:100060000C947E000C947E000C947E000C947E0018
:100070000C947E000C947E000C947E000C947E0008
:100080000C947E000C947E000C947E000C947E00F8
:100090000C947E000C947E000C947E000C947E00E8
:1000A0000C947E000C947E000C947E000C947E00D8
:1000B0000C947E000C947E000C947E000C947E00C8
:1000C0000C947E000C947E000C947E000C947E00B8
:1000D0000C947E000C947E000C947E000C947E00A8
:1000E0000C947E0011241FBECFEFD1E2DEBFCDBF46
:1000F00000E00CBF0E9405010C94C71A0C9400008C
:10010000CF93DF93CDB7DEB78AE290E0FC01208188
:100110008AE290E02E7FFC0120838AE290E0FC01DD
:1001200020818AE290E02D7FFC0120838AE290E02A
:10013000FC0120818AE290E02B7FFC0120838AE28F
:1001400090E0FC0120818AE290E0277FFC0120837F
:1001500081E091E0FC01208181E091E02E7FFC01B3
:10016000208381E091E0FC01208181E091E02D7FFE
:10017000FC01208381E290E0FC01208181E290E09B
:100180002E7FFC01208381E290E0FC01208181E24E
:1001900090E02B7FFC0120838DE290E0FC01208128
:1001A0008DE290E02160FC01208384E290E0FC017C
:1001B000208184E290E02068FC01208385E290E0C9
:1001C000FC01208185E290E02068FC01208385E22B
:1001D00090E0FC01308185E290E020E82327FC01DB
:1001E00020830000DF91CF910895CF93DF93CDB7A7
:1001F000DEB70E94B0150E9408170E9469180E947D
:1002000080000000DF91CF9108950F931F93CF934B
:10021000DF93CDB7DEB7CE57D2400FB6F894DEBF2E
:100220000FBECDBF0E94F5001A8A198A1C8A1B8A4C
:100230001E8A1D8A188E1F8A1A8E198E1A8219829A
:100240001C821B821E821D8218861F821A861986B6
:100250001C861B861E861D86188A1F8683E091E0F9
:10026000DC018C91882F90E081709927009709F428
:10027000CFC080E090E0A0EAB1E48B8F9C8FAD8F7F
:10028000BE8F20E030E04AE755E46B8D7C8D8D8D8C
:100290009E8D0E94321AC15ADE4F688379838A8309
:1002A0009B83CF55D140C15ADE4F88819981AA8165
:1002B000BB81CF55D1408F8F98A3A9A3BAA320E0CB
:1002C00030E040E85FE36F8D78A189A19AA10E9498
:1002D000AC1988232CF481E090E09CA38BA376C01A
:1002E00020E03FEF4FE757E46F8D78A189A19AA1F5
:1002F0000E942D1A882309F00CF452C020E030E04F
:1003000040E251E46B8D7C8D8D8D9E8D0E94321A62
:10031000CD59DE4F688379838A839B83C356D1404E
:10032000CD59DE4F88819981AA81BB81C356D140C6
:10033000C95EDE4F88839983AA83BB83C751D140AE
:10034000C95EDE4F688179818A819B81C751D14026
:100350000E94B119C959DE4F688379838A839B83D0
:10036000C756D140C959DE4FA881B981C756D1407F
:10037000BCA3ABA310C080E991E09EA38DA38DA187
:100380009EA10197F1F79EA38DA300008BA19CA1D4
:1003900001979CA38BA38BA19CA1009761F721C01F
:1003A0006F8D78A189A19AA10E94B119C559DE4F1C
:1003B000688379838A839B83CB56D140C559DE4FAE
:1003C000E881F981CB56D140FCA3EBA38BA19CA182
:1003D00098A78FA38FA198A50197F1F798A78FA34E
:1003E00000001A8A198A89890E94F3151C8A1B8ABF
:1003F0008B890E944B171E8A1D8A89890E94AE181C
:1004000081E090E09A8F898F81E090E09C838B83DC
:1004100083E091E0DC018C91882F90E08170992736
:10042000009709F0C1C180E090E0A0EAB1E489A79B
:100430009AA7ABA7BCA720E030E04AE755E469A53E
:100440007AA58BA59CA50E94321AC159DE4F6883FC
:1004500079838A839B83CF56D140C159DE4F8881EF
:100460009981AA81BB81CF56D1408DA79EA7AFA706
:10047000B8AB20E030E040E85FE36DA57EA58FA536
:1004800098A90E94AC1988232CF481E090E09AABE3
:1004900089AB76C020E03FEF4FE757E46DA57EA51E
:1004A0008FA598A90E942D1A882309F00CF452C038
:1004B00020E030E040E251E469A57AA58BA59CA537
:1004C0000E94321ACD58DE4F688379838A839B83DA
:1004D000C357D140CD58DE4F88819981AA81BB8115
:1004E000C357D140C55EDE4F88839983AA83BB83FF
:1004F000CB51D140C55EDE4F688179818A819B8175
:10050000CB51D1400E94B119C958DE4F688379831D
:100510008A839B83C757D140C958DE4FA881B981D0
:10052000C757D140BAABA9AB10C080E991E09CABF2
:100530008BAB8BA99CA90197F1F79CAB8BAB00000F
:1005400089A99AA901979AAB89AB89A99AA9009719
:1005500061F721C06DA57EA58FA598A90E94B1194C
:10056000C558DE4F688379838A839B83CB57D140FC
:10057000C558DE4FE881F981CB57D140FAABE9ABE2
:1005800089A99AA99EAB8DAB8DA99EA90197F1F778
:100590009EAB8DAB00001A8E198E8B819C818130B1
:1005A000910509F001C189819A818130910509F095
:1005B000F9C08CE99FEF9A8B898B89890E94F3158A
:1005C00080E090E4ACE9B5E48FAB98AFA9AFBAAFE7
:1005D00020E030E04AE755E46FA978AD89AD9AADE7
:1005E0000E94321AC158DE4F688379838A839B83C5
:1005F000CF57D140C158DE4F88819981AA81BB81F4
:10060000CF57D1408BAF9CAFADAFBEAF20E030E055
:1006100040E85FE36BAD7CAD8DAD9EAD0E94AC1943
:1006200088234CF421E030E0CE01CF96DC01119616
:100630003C932E9395C020E03FEF4FE757E46BAD1E
:100640007CAD8DAD9EAD0E942D1A882309F00CF46F
:100650006EC020E030E040E251E46FA978AD89AD92
:100660009AAD0E94321ACD57DE4F688379838A8310
:100670009B83C358D140CD57DE4F88819981AA8191
:10068000BB81C358D140C15EDE4F88839983AA8362
:10069000BB83CF51D140C15EDE4F688179818A81B1
:1006A0009B81CF51D1400E94B119C957DE4F688359
:1006B00079838A839B83C758D140CE01CF96C9578F
:1006C000DE4FE881F981C758D140DC011196FC93D7
:1006D000EE9325C0CE018F5B9F4F20E931E0DC0116
:1006E0002D933C93CE018F5B9F4FFC0180819181C4
:1006F0000197F1F79E012F5B3F4FD9018D939C939A
:100700000000CE01CF96FC01808191819C01215097
:100710003109CE01CF96DC0111963C932E93CE0188
:10072000CF96FC01808191810097A1F634C06BAD1A
:100730007CAD8DAD9EAD0E94B119C557DE4F68836B
:1007400079838A839B83CB58D140CE01CF96C557FE
:10075000DE4FE881F981CB58D140DC01ED93FC9369
:10076000CE018D5B9F4F9E01215C3F4FD9012D91A2
:100770003C91FC0131832083CE018D5B9F4FDC01D6
:100780008D919C910197F1F79E012D5B3F4FF901EF
:100790009183808300001A8A198A89890E94F3153F
:1007A0001A8219821C821B8289E290E0DC018C9102
:1007B000882F90E082709927009709F431C21A8A35
:1007C000198A89890E94F31585E290E0FC01308145
:1007D00085E290E020E82327DC012C939E012D5A2E
:1007E0003F4F80E090E0AAEFB4E4F9018083918369
:1007F000A283B3838E01095A1F4FCE018D5A9F4F9A
:1008000020E030E04AE755E4DC016D917D918D9167
:100810009C910E94321AC157DE4F688379838A8384
:100820009B83CF58D140C157DE4F88819981AA81DF
:10083000BB81CF58D140F80180839183A283B383D9
:10084000CE01895A9F4F20E030E040E85FE3DC01B1
:100850006D917D918D919C910E94AC1988234CF4EF
:10086000CE01855A9F4F21E030E0FC013183208387
:10087000A5C0CE01895A9F4F20E03FEF4FE757E4D4
:10088000DC016D917D918D919C910E942D1A8823A0
:1008900009F00CF475C0CE018D5A9F4F20E030E076
:1008A00040E251E4FC0160817181828193810E9468
:1008B000321ACD56DE4F688379838A839B83C3596E
:1008C000D140CD56DE4F88819981AA81BB81C35921
:1008D000D140C95DDE4F88839983AA83BB83C75209
:1008E000D1408E01055A1F4FC95DDE4F6881798165
:1008F0008A819B81C752D1400E94B119C956DE4FEF
:10090000688379838A839B83C759D140C956DE4F58
:10091000E881F981C759D140D8011196FC93EE9333
:1009200026C0CE01835A9F4F20E931E0DC012D9390
:100930003C93CE01835A9F4FFC01808191810197A6
:10094000F1F79E01235A3F4FD9018D939C930000EC
:10095000CE01855A9F4F9E01255A3F4FF9012081B4
:10096000318121503109DC0111963C932E93CE0147
:10097000855A9F4FFC0180819181009791F639C083
:100980008E01055A1F4FCE01895A9F4FDC016D9190
:100990007D918D919C910E94B119C556DE4F68835F
:1009A00079838A839B83CB59D140C556DE4F2881FA
:1009B0003981CB59D140F80131832083CE01815A4E
:1009C0009F4F9E01255A3F4FD9012D913C91FC012B
:1009D00031832083CE01815A9F4FDC018D919C9100
:1009E0000197F1F79E01215A3F4FF90191838083CE
:1009F00000008CE99FEF9A8B898B89890E94F315FF
:100A00009E012B5B3F4F80E090E4ACE9B5E4F90137
:100A100080839183A283B3838E01075B1F4FCE0136
:100A20008B5B9F4F20E030E04AE755E4DC016D919D
:100A30007D918D919C910E94321AC156DE4F688340
:100A400079838A839B83CF59D140C156DE4F8881F9
:100A50009981AA81BB81CF59D140F80180839183CC
:100A6000A283B383CE01875B9F4F20E030E040E854
:100A70005FE3DC016D917D918D919C910E94AC1999
:100A800088234CF4CE01835B9F4F21E030E0FC01D2
:100A900031832083A5C0CE01875B9F4F20E03FEFCD
:100AA0004FE757E4DC016D917D918D919C910E94FF
:100AB0002D1A882309F00CF475C0CE018B5B9F4F73
:100AC00020E030E040E251E4FC01608171818281EC
:100AD00093810E94321ACD55DE4F688379838A83D1
:100AE0009B83C35AD140CD55DE4F88819981AA811D
:100AF000BB81C35AD140CD5DDE4F88839983AA83E1
:100B0000BB83C352D1408E01035B1F4FCD5DDE4FCF
:100B1000688179818A819B81C352D1400E94B11939
:100B2000C955DE4F688379838A839B83C75AD14036
:100B3000C955DE4FE881F981C75AD140D8011196D5
:100B4000FC93EE9326C0CE01815B9F4F20E931E0FC
:100B5000DC012D933C93CE01815B9F4FFC01808192
:100B600091810197F1F79E01215B3F4FD9018D9350
:100B70009C930000CE01835B9F4F9E01235B3F4F00
:100B8000F9012081318121503109DC0111963C931A
:100B90002E93CE01835B9F4FFC0180819181009752
:100BA00091F639C08E01035B1F4FCE01875B9F4FCB
:100BB000DC016D917D918D919C910E94B119C5557B
:100BC000DE4F688379838A839B83CB5AD140C55596
:100BD000DE4F28813981CB5AD140F80131832083FF
:100BE000CE018F5A9F4F9E01235B3F4FD9012D911C
:100BF0003C91FC0131832083CE018F5A9F4FDC0151
:100C00008D919C910197F1F79E012F5A3F4FF90169
:100C10009183808300001A8A198A89890E94F315BA
:100C200089E290E0DC018C91882F90E08170992717
:100C3000009709F416C181E090E09A8389839E01B0
:100C40002F593F4F80E090E0A0EAB1E4F9018083A2
:100C50009183A283B3838E010B591F4FCE018F590D
:100C60009F4F20E030E04AE755E4DC016D917D9133
:100C70008D919C910E94321AC155DE4F6883798311
:100C80008A839B83CF5AD140C155DE4F8881998199
:100C9000AA81BB81CF5AD140F80180839183A2837E
:100CA000B383CE018B599F4F20E030E040E85FE3F3
:100CB000DC016D917D918D919C910E94AC198823EE
:100CC0004CF4CE0187599F4F21E030E0FC01318385
:100CD0002083A5C0CE018B599F4F20E03FEF4FE707
:100CE00057E4DC016D917D918D919C910E942D1AAC
:100CF000882309F00CF475C0CE018F599F4F20E076
:100D000030E040E251E4FC01608171818281938195
:100D10000E94321ACD54DE4F688379838A839B8385
:100D2000C35BD140CD54DE4F88819981AA81BB81BC
:100D3000C35BD140C55DDE4F88839983AA83BB83A3
:100D4000CB52D1408E0107591F4FC55DDE4F6881E0
:100D500079818A819B81CB52D1400E94B119C954BB
:100D6000DE4F688379838A839B83C75BD140C954F4
:100D7000DE4FE881F981C75BD140D8011196FC9321
:100D8000EE9326C0CE0185599F4F20E931E0DC016A
:100D90002D933C93CE0185599F4FFC018081918119
:100DA0000197F1F79E0125593F4FD9018D939C93EF
:100DB0000000CE0187599F4F9E0127593F4FF901EF
:100DC0002081318121503109DC0111963C932E9311
:100DD000CE0187599F4FFC0180819181009791F648
:100DE00039C08E0107591F4FCE018B599F4FDC012F
:100DF0006D917D918D919C910E94B119C554DE4FEA
:100E0000688379838A839B83CB5BD140C554DE4F53
:100E100028813981CB5BD140F80131832083CE0119
:100E200083599F4F9E0127593F4FD9012D913C91E6
:100E3000FC0131832083CE0183599F4FDC018D91CA
:100E40009C910197F1F79E0123593F4FF90191833E
:100E50008083000084E690E09A8B898B89890E94C8
:100E6000F31580E290E0DC018C91882F90E0817096
:100E70009927009709F41BC18D819E81009709F085
:100E800016C19E0121593F4F80E090E0A0EAB1E4F5
:100E9000F90180839183A283B3838E010D581F4F84
:100EA000CE0181599F4F20E030E04AE755E4DC0154
:100EB0006D917D918D919C910E94321AC154DE4FAB
:100EC000688379838A839B83CF5BD140C154DE4F93
:100ED00088819981AA81BB81CF5BD140F801808351
:100EE0009183A283B383CE018D589F4F20E030E0E1
:100EF00040E85FE3DC016D917D918D919C910E94B2
:100F0000AC1988234CF4CE0189589F4F21E030E082
:100F1000FC0131832083A5C0CE018D589F4F20E076
:100F20003FEF4FE757E4DC016D917D918D919C91EE
:100F30000E942D1A882309F00CF475C0CE01815946
:100F40009F4F20E030E040E251E4FC01608171817C
:100F5000828193810E94321ACD53DE4F6883798358
:100F60008A839B83C35CD140CD53DE4F88819981B6
:100F7000AA81BB81C35CD140C15DDE4F8883998368
:100F8000AA83BB83CF52D1408E0109581F4FC15D48
:100F9000DE4F688179818A819B81CF52D1400E9446
:100FA000B119C953DE4F688379838A839B83C75CF9
:100FB000D140C953DE4FE881F981C75CD140D801E7
:100FC0001196FC93EE9326C0CE0187589F4F20E9DF
:100FD00031E0DC012D933C93CE0187589F4FFC01FB
:100FE000808191810197F1F79E0127583F4FD901E8
:100FF0008D939C930000CE0189589F4F9E012958E4
:101000003F4FF9012081318121503109DC011196D6
:101010003C932E93CE0189589F4FFC018081918192
:10102000009791F639C08E0109581F4FCE018D5897
:101030009F4FDC016D917D918D919C910E94B11922
:10104000C553DE4F688379838A839B83CB5CD14011
:10105000C553DE4F28813981CB5CD140F801318303
:101060002083CE0185589F4F9E0129583F4FD901BB
:101070002D913C91FC0131832083CE0185589F4FF7
:10108000DC018D919C910197F1F79E0125583F4F0E
:10109000F9019183808300008CE99FEF9A8B898B03
:1010A00081E090E09E838D8389890E94F31580E220
:1010B00090E0DC018C91882F90E084709927009754
:1010C00009F41BC18F819885009709F016C19E0114
:1010D00023583F4F80E090E0A0EAB1E4F90180831B
:1010E0009183A283B3838E010F571F4FCE01835884
:1010F0009F4F20E030E04AE755E4DC016D917D919F
:101100008D919C910E94321AC153DE4F688379837E
:101110008A839B83CF5CD140C153DE4F8881998104
:10112000AA81BB81CF5CD140F80180839183A283E7
:10113000B383CE018F579F4F20E030E040E85FE35C
:10114000DC016D917D918D919C910E94AC19882359
:101150004CF4CE018B579F4F21E030E0FC013183EE
:101160002083A5C0CE018F579F4F20E03FEF4FE770
:1011700057E4DC016D917D918D919C910E942D1A17
:10118000882309F00CF475C0CE0183589F4F20E0EE
:1011900030E040E251E4FC01608171818281938101
:1011A0000E94321ACD52DE4F688379838A839B83F3
:1011B000C35DD140CD52DE4F88819981AA81BB8128
:1011C000C35DD140CD5CDE4F88839983AA83BB8306
:1011D000C353D1408E010B571F4FCD5CDE4F68814A
:1011E00079818A819B81C353D1400E94B119C95230
:1011F000DE4F688379838A839B83C75DD140C95260
:10120000DE4FE881F981C75DD140D8011196FC938A
:10121000EE9326C0CE0189579F4F20E931E0DC01D3
:101220002D933C93CE0189579F4FFC018081918182
:101230000197F1F79E0129573F4FD9018D939C9358
:101240000000CE018B579F4F9E012B573F4FF90156
:101250002081318121503109DC0111963C932E937C
:10126000CE018B579F4FFC0180819181009791F6B1
:1012700039C08E010B571F4FCE018F579F4FDC0196
:101280006D917D918D919C910E94B119C552DE4F57
:10129000688379838A839B83CB5DD140C552DE4FBF
:1012A00028813981CB5DD140F80131832083CE0183
:1012B00087579F4F9E012B573F4FD9012D913C914E
:1012C000FC0131832083CE0187579F4FDC018D9134
:1012D0009C910197F1F79E0127573F4FF9019183A8
:1012E0008083000084E690E09A8B898B81E090E017
:1012F00098878F8389890E94F31580E290E0DC0152
:101300008C91882F90E081709927009709F017C180
:101310008D819E81009709F412C19E0125573F4F90
:1013200080E090E0A0EAB1E4F90180839183A28398
:10133000B3838E0101571F4FCE0185579F4F20E089
:1013400030E04AE755E4DC016D917D918D919C91EF
:101350000E94321AC152DE4F688379838A839B834D
:10136000CF5DD140C152DE4F88819981AA81BB8176
:10137000CF5DD140F80180839183A283B383CE01F6
:1013800081579F4F20E030E040E85FE3DC016D9142
:101390007D918D919C910E94AC1988234CF4CE01D3
:1013A0008D569F4F21E030E0FC0131832083A5C0A2
:1013B000CE0181579F4F20E03FEF4FE757E4DC011C
:1013C0006D917D918D919C910E942D1A882309F039
:1013D0000CF475C0CE0185579F4F20E030E040E20D
:1013E00051E4FC0160817181828193810E94321AF3
:1013F000CD51DE4F688379838A839B83C35ED1405E
:10140000CD51DE4F88819981AA81BB81C35ED140D5
:10141000C95CDE4F88839983AA83BB83C753D140BD
:101420008E010D561F4FC95CDE4F688179818A811C
:101430009B81C753D1400E94B119C951DE4F6883C7
:1014400079838A839B83C75ED140C951DE4FE8818F
:10145000F981C75ED140D8011196FC93EE9326C066
:10146000CE018B569F4F20E931E0DC012D933C9358
:10147000CE018B569F4FFC01808191810197F1F73E
:101480009E012B563F4FD9018D939C930000CE01B6
:101490008D569F4F9E012D563F4FF901208131817E
:1014A00021503109DC0111963C932E93CE018D56CB
:1014B0009F4FFC0180819181009791F639C08E0188
:1014C0000D561F4FCE0181579F4FDC016D917D91CD
:1014D0008D919C910E94B119C551DE4F688379832B
:1014E0008A839B83CB5ED140C551DE4F28813981F1
:1014F000CB5ED140F80131832083CE0189569F4FC6
:101500009E012D563F4FD9012D913C91FC01318315
:101510002083CE0189569F4FDC018D919C910197CC
:10152000F1F79E0129563F4FF90191838083000016
:101530001A8A198A1E821D8289890E94F31580E207
:1015400090E0DC018C91882F90E0847099270097BF
:1015500009F017C18F819885009709F412C19E0187
:1015600027563F4F80E090E0A0EAB1E4F901808384
:101570009183A283B3838E0103561F4FCE018756FA
:101580009F4F20E030E04AE755E4DC016D917D910A
:101590008D919C910E94321AC151DE4F68837983EC
:1015A0008A839B83CF5ED140C151DE4F8881998170
:1015B000AA81BB81CF5ED140F80180839183A28351
:1015C000B383CE0183569F4F20E030E040E85FE3D5
:1015D000DC016D917D918D919C910E94AC198823C5
:1015E0004CF4CE018F559F4F21E030E0FC01318358
:1015F0002083A5C0CE0183569F4F20E03FEF4FE7E9
:1016000057E4DC016D917D918D919C910E942D1A82
:10161000882309F00CF475C0CE0187569F4F20E057
:1016200030E040E251E4FC0160817181828193816C
:101630000E94321ACD50DE4F688379838A839B8360
:10164000C35FD140CD50DE4F88819981AA81BB8193
:10165000C35FD140C55CDE4F88839983AA83BB8377
:10166000CB53D1408E010F551F4FC55CDE4F6881B3
:1016700079818A819B81CB53D1400E94B119C95095
:10168000DE4F688379838A839B83C75FD140C950CB
:10169000DE4FE881F981C75FD140D8011196FC93F4
:1016A000EE9326C0CE018D559F4F20E931E0DC013D
:1016B0002D933C93CE018D559F4FFC0180819181EC
:1016C0000197F1F79E012D553F4FD9018D939C93C2
:1016D0000000CE018F559F4F9E012F553F4FF901BE
:1016E0002081318121503109DC0111963C932E93E8
:1016F000CE018F559F4FFC0180819181009791F61B
:1017000039C08E010F551F4FCE0183569F4FDC010C
:101710006D917D918D919C910E94B119C550DE4FC4
:10172000688379838A839B83CB5FD140C550DE4F2A
:1017300028813981CB5FD140F80131832083CE01EC
:101740008B559F4F9E012F553F4FD9012D913C91B5
:10175000FC0131832083CE018B559F4FDC018D919D
:101760009C910197F1F79E012B553F4FF901918311
:10177000808300001A8A198A18861F8289890E942C
:10178000F31589E290E0DC018C91882F90E0847061
:101790009927009709F41BC189859A85009709F05C
:1017A00016C19E0129553F4F80E090E0A0EAB1E4C8
:1017B000F90180839183A283B3838E0105551F4F66
:1017C000CE0189559F4F20E030E04AE755E4DC0127
:1017D0006D917D918D919C910E94321AC150DE4F86
:1017E000688379838A839B83CF5FD140C150DE4F6A
:1017F00088819981AA81BB81CF5FD140F801808324
:101800009183A283B383CE0185559F4F20E030E0C2
:1018100040E85FE3DC016D917D918D919C910E9488
:10182000AC1988234CF4CE0181559F4F21E030E064
:10183000FC0131832083A5C0CE0185559F4F20E058
:101840003FEF4FE757E4DC016D917D918D919C91C5
:101850000E942D1A882309F00CF475C0CE01895519
:101860009F4F20E030E040E251E4FC016081718153
:10187000828193810E94321ACD5FDD4F6883798324
:101880008A839B83C350D240CD5FDD4F888199818D
:10189000AA81BB81C350D240C15CDE4F888399834B
:1018A000AA83BB83CF53D1408E0101551F4FC15C2A
:1018B000DE4F688179818A819B81CF53D1400E941C
:1018C000B119C95FDD4F688379838A839B83C750D1
:1018D000D240C95FDD4FE881F981C750D240D801BD
:1018E0001196FC93EE9326C0CE018F549F4F20E9B2
:1018F00031E0DC012D933C93CE018F549F4FFC01CE
:10190000808191810197F1F79E012F543F4FD901BA
:101910008D939C930000CE0181559F4F9E012155D0
:101920003F4FF9012081318121503109DC011196AD
:101930003C932E93CE0181559F4FFC018081918174
:10194000009791F639C08E0101551F4FCE01855584
:101950009F4FDC016D917D918D919C910E94B119F9
:10196000C55FDD4F688379838A839B83CB50D240E8
:10197000C55FDD4F28813981CB50D240F8013183DA
:101980002083CE018D549F4F9E0121553F4FD90199
:101990002D913C91FC0131832083CE018D549F4FCA
:1019A000DC018D919C910197F1F79E012D543F4FE1
:1019B000F90191838083000084E690E09C8B8B8BFF
:1019C00081E090E09A8789878B890E944B1789E292
:1019D00090E0DC018C91882F90E088709927009727
:1019E00009F41BC18B859C85009709F016C19E01E7
:1019F0002B543F4F80E090E0A0EAB1E4F9018083EE
:101A00009183A283B3838E0107541F4FCE018B5461
:101A10009F4F20E030E04AE755E4DC016D917D9175
:101A20008D919C910E94321AC15FDD4F688379834A
:101A30008A839B83CF50D240C15FDD4F88819981DB
:101A4000AA81BB81CF50D240F80180839183A283C9
:101A5000B383CE0187549F4F20E030E040E85FE33E
:101A6000DC016D917D918D919C910E94AC19882330
:101A70004CF4CE0183549F4F21E030E0FC013183D0
:101A80002083A5C0CE0187549F4F20E03FEF4FE752
:101A900057E4DC016D917D918D919C910E942D1AEE
:101AA000882309F00CF475C0CE018B549F4F20E0C1
:101AB00030E040E251E4FC016081718182819381D8
:101AC0000E94321ACD5EDD4F688379838A839B83BF
:101AD000C351D240CD5EDD4F88819981AA81BB81FF
:101AE000C351D240CD5BDE4F88839983AA83BB83E9
:101AF000C354D1408E0103541F4FCD5BDE4F68812C
:101B000079818A819B81C354D1400E94B119C95EF9
:101B1000DD4F688379838A839B83C751D240C95E36
:101B2000DD4FE881F981C751D240D8011196FC936D
:101B3000EE9326C0CE0181549F4F20E931E0DC01B5
:101B40002D933C93CE0181549F4FFC018081918164
:101B50000197F1F79E0121543F4FD9018D939C933A
:101B60000000CE0183549F4F9E0123543F4FF90143
:101B70002081318121503109DC0111963C932E9353
:101B8000CE0183549F4FFC0180819181009791F693
:101B900039C08E0103541F4FCE0187549F4FDC0183
:101BA0006D917D918D919C910E94B119C55EDD4F23
:101BB000688379838A839B83CB51D240C55EDD4F96
:101BC00028813981CB51D240F80131832083CE0165
:101BD0008F539F4F9E0123543F4FD9012D913C912C
:101BE000FC0131832083CE018F539F4FDC018D9107
:101BF0009C910197F1F79E012F533F4FF90191837B
:101C0000808300008CE99FEF9C8B8B8B81E090E0C0
:101C10009C878B878B890E944B1789E290E0DC01BF
:101C20008C91882F90E084709927009709F017C154
:101C300089859A85009709F412C19E012D533F4F63
:101C400080E090E0A0EAB1E4F90180839183A2836F
:101C5000B3838E0109531F4FCE018D539F4F20E058
:101C600030E04AE755E4DC016D917D918D919C91C6
:101C70000E94321AC15EDD4F688379838A839B8319
:101C8000CF51D240C15EDD4F88819981AA81BB814D
:101C9000CF51D240F80180839183A283B383CE01D8
:101CA00089539F4F20E030E040E85FE3DC016D9115
:101CB0007D918D919C910E94AC1988234CF4CE01AA
:101CC00085539F4F21E030E0FC0131832083A5C084
:101CD000CE0189539F4F20E03FEF4FE757E4DC01EF
:101CE0006D917D918D919C910E942D1A882309F010
:101CF0000CF475C0CE018D539F4F20E030E040E2E0
:101D000051E4FC0160817181828193810E94321AC9
:101D1000CD5DDD4F688379838A839B83C352D24034
:101D2000CD5DDD4F88819981AA81BB81C352D240AC
:101D3000C95BDE4F88839983AA83BB83C754D14094
:101D40008E0105531F4FC95BDE4F688179818A81FF
:101D50009B81C754D1400E94B119C95DDD4F688392
:101D600079838A839B83C752D240C95DDD4FE88166
:101D7000F981C752D240D8011196FC93EE9326C048
:101D8000CE0183539F4F20E931E0DC012D933C933A
:101D9000CE0183539F4FFC01808191810197F1F720
:101DA0009E0123533F4FD9018D939C930000CE0198
:101DB00085539F4F9E0125533F4FF901208131816B
:101DC00021503109DC0111963C932E93CE018553AD
:101DD0009F4FFC0180819181009791F639C08E015F
:101DE00005531F4FCE0189539F4FDC016D917D91AB
:101DF0008D919C910E94B119C55DDD4F68837983F7
:101E00008A839B83CB52D240C55DDD4F28813981C7
:101E1000CB52D240F80131832083CE0181539F4FB2
:101E20009E0125533F4FD9012D913C91FC013183F7
:101E30002083CE0181539F4FDC018D919C910197AE
:101E4000F1F79E0121533F4FF901918380830000F8
:101E50001C8A1B8A1A8619868B890E944B1789E275
:101E600090E0DC018C91882F90E088709927009792
:101E700009F017C18B859C85009709F412C19E015A
:101E80002F523F4F80E090E0A0EAB1E4F901808357
:101E90009183A283B3838E010B521F4FCE018F52C9
:101EA0009F4F20E030E04AE755E4DC016D917D91E1
:101EB0008D919C910E94321AC15DDD4F68837983B8
:101EC0008A839B83CF52D240C15DDD4F8881998147
:101ED000AA81BB81CF52D240F80180839183A28333
:101EE000B383CE018B529F4F20E030E040E85FE3A8
:101EF000DC016D917D918D919C910E94AC1988239C
:101F00004CF4CE0187529F4F21E030E0FC01318339
:101F10002083A5C0CE018B529F4F20E03FEF4FE7BB
:101F200057E4DC016D917D918D919C910E942D1A59
:101F3000882309F00CF475C0CE018F529F4F20E02A
:101F400030E040E251E4FC01608171818281938143
:101F50000E94321ACD5CDD4F688379838A839B832C
:101F6000C353D240CD5CDD4F88819981AA81BB816A
:101F7000C353D240C55BDE4F88839983AA83BB835A
:101F8000CB54D1408E0107521F4FC55BDE4F688195
:101F900079818A819B81CB54D1400E94B119C95C5F
:101FA000DD4F688379838A839B83C753D240C95CA2
:101FB000DD4FE881F981C753D240D8011196FC93D7
:101FC000EE9326C0CE0185529F4F20E931E0DC011F
:101FD0002D933C93CE0185529F4FFC0180819181CE
:101FE0000197F1F79E0125523F4FD9018D939C93A4
:101FF0000000CE0187529F4F9E0127523F4FF901AB
:102000002081318121503109DC0111963C932E93BE
:10201000CE0187529F4FFC0180819181009791F6FC
:1020200039C08E0107521F4FCE018B529F4FDC01EA
:102030006D917D918D919C910E94B119C55CDD4F90
:10204000688379838A839B83CB53D240C55CDD4F01
:1020500028813981CB53D240F80131832083CE01CE
:1020600083529F4F9E0127523F4FD9012D913C91A2
:10207000FC0131832083CE0183529F4FDC018D917F
:102080009C910197F1F79E0123523F4FF9019183F3
:10209000808300001C8A1B8A1C861B868B890E94F9
:1020A0004B1780E091E0DC018C91882F90E08170EB
:1020B0009927009709F41BC18D859E85009709F02B
:1020C00016C19E0121523F4F80E090E0A0EAB1E4AA
:1020D000F90180839183A283B3838E010D511F4F39
:1020E000CE0181529F4F20E030E04AE755E4DC0109
:1020F0006D917D918D919C910E94321AC15CDD4F52
:10210000688379838A839B83CF53D240C15CDD4F40
:1021100088819981AA81BB81CF53D240F801808305
:102120009183A283B383CE018D519F4F20E030E095
:1021300040E85FE3DC016D917D918D919C910E945F
:10214000AC1988234CF4CE0189519F4F21E030E037
:10215000FC0131832083A5C0CE018D519F4F20E02B
:102160003FEF4FE757E4DC016D917D918D919C919C
:102170000E942D1A882309F00CF475C0CE018152FB
:102180009F4F20E030E040E251E4FC01608171812A
:10219000828193810E94321ACD5BDD4F68837983FF
:1021A0008A839B83C354D240CD5BDD4F8881998164
:1021B000AA81BB81C354D240C15BDE4F888399831F
:1021C000AA83BB83CF54D1408E0109511F4FC15BFD
:1021D000DE4F688179818A819B81CF54D1400E94F2
:1021E000B119C95BDD4F688379838A839B83C754A8
:1021F000D240C95BDD4FE881F981C754D240D80194
:102200001196FC93EE9326C0CE0187519F4F20E993
:1022100031E0DC012D933C93CE0187519F4FFC01AF
:10222000808191810197F1F79E0127513F4FD9019C
:102230008D939C930000CE0189519F4F9E0129519F
:102240003F4FF9012081318121503109DC01119684
:102250003C932E93CE0189519F4FFC018081918147
:10226000009791F639C08E0109511F4FCE018D5153
:102270009F4FDC016D917D918D919C910E94B119D0
:10228000C55BDD4F688379838A839B83CB54D240BF
:10229000C55BDD4F28813981CB54D240F8013183B1
:1022A0002083CE0185519F4F9E0129513F4FD90177
:1022B0002D913C91FC0131832083CE0185519F4FAC
:1022C000DC018D919C910197F1F79E0125513F4FC3
:1022D000F90191838083000084E690E09E8B8D8BD2
:1022E00081E090E09E878D878D890E94AE1880E006
:1022F00091E0DC018C91882F90E082709927009703
:1023000009F41BC18F859889009709F016C19E01B9
:1023100023513F4F80E090E0A0EAB1E4F9018083CF
:102320009183A283B3838E010F501F4FCE0183513F
:102330009F4F20E030E04AE755E4DC016D917D914C
:102340008D919C910E94321AC15BDD4F6883798325
:102350008A839B83CF54D240C15BDD4F88819981B2
:10236000AA81BB81CF54D240F80180839183A2839C
:10237000B383CE018F509F4F20E030E040E85FE311
:10238000DC016D917D918D919C910E94AC19882307
:102390004CF4CE018B509F4F21E030E0FC013183A3
:1023A0002083A5C0CE018F509F4F20E03FEF4FE725
:1023B00057E4DC016D917D918D919C910E942D1AC5
:1023C000882309F00CF475C0CE0183519F4F20E0A3
:1023D00030E040E251E4FC016081718182819381AF
:1023E0000E94321ACD5ADD4F688379838A839B839A
:1023F000C355D240CD5ADD4F88819981AA81BB81D6
:10240000C355D240CD5ADE4F88839983AA83BB83BC
:10241000C355D1408E010B501F4FCD5ADE4F6881FE
:1024200079818A819B81C355D1400E94B119C95AD3
:10243000DD4F688379838A839B83C755D240C95A0D
:10244000DD4FE881F981C755D240D8011196FC9340
:10245000EE9326C0CE0189509F4F20E931E0DC0188
:102460002D933C93CE0189509F4FFC018081918137
:102470000197F1F79E0129503F4FD9018D939C930D
:102480000000CE018B509F4F9E012B503F4FF90112
:102490002081318121503109DC0111963C932E932A
:1024A000CE018B509F4FFC0180819181009791F666
:1024B00039C08E010B501F4FCE018F509F4FDC0152
:1024C0006D917D918D919C910E94B119C55ADD4FFE
:1024D000688379838A839B83CB55D240C55ADD4F6D
:1024E00028813981CB55D240F80131832083CE0138
:1024F00087509F4F9E012B503F4FD9012D913C910A
:10250000FC0131832083CE0187509F4FDC018D91E8
:102510009C910197F1F79E0127503F4FF90191835C
:10252000808300008CE99FEF9E8B8D8B81E090E093
:10253000988B8F878D890E94AE1880E091E0DC0136
:102540008C91882F90E081709927009709F017C12E
:102550008D859E85009709F412C19E0125503F4F3D
:1025600080E090E0A0EAB1E4F90180839183A28346
:10257000B3838E0101501F4FCE0185509F4F20E045
:1025800030E04AE755E4DC016D917D918D919C919D
:102590000E94321AC15ADD4F688379838A839B83F4
:1025A000CF55D240C15ADD4F88819981AA81BB8124
:1025B000CF55D240F80180839183A283B383CE01AB
:1025C00081509F4F20E030E040E85FE3DC016D91F7
:1025D0007D918D919C910E94AC1988234CF4CE0181
:1025E0008D5F9E4F21E030E0FC0131832083A5C048
:1025F000CE0181509F4F20E03FEF4FE757E4DC01D1
:102600006D917D918D919C910E942D1A882309F0E6
:102610000CF475C0CE0185509F4F20E030E040E2C1
:1026200051E4FC0160817181828193810E94321AA0
:10263000CD59DD4F688379838A839B83C356D2400B
:10264000CD59DD4F88819981AA81BB81C356D24083
:10265000C95ADE4F88839983AA83BB83C755D1406B
:102660008E010D5F1E4FC95ADE4F688179818A81C4
:102670009B81C755D1400E94B119C959DD4F68836C
:1026800079838A839B83C756D240C959DD4FE8813D
:10269000F981C756D240D8011196FC93EE9326C01B
:1026A000CE018B5F9E4F20E931E0DC012D933C93FE
:1026B000CE018B5F9E4FFC01808191810197F1F7E4
:1026C0009E012B5F3E4FD9018D939C930000CE015C
:1026D0008D5F9E4F9E012D5F3E4FF901208131811C
:1026E00021503109DC0111963C932E93CE018D5F70
:1026F0009E4FFC0180819181009791F639C08E0137
:102700000D5F1E4FCE0181509F4FDC016D917D9179
:102710008D919C910E94B119C559DD4F68837983D1
:102720008A839B83CB56D240C559DD4F288139819E
:10273000CB56D240F80131832083CE01895F9E4F72
:102740009E012D5F3E4FD9012D913C91FC013183BB
:102750002083CE01895F9E4FDC018D919C91019772
:10276000F1F79E01295F3E4FF901918380830000BC
:102770001E8A1D8A1E861D868D890E94AE1880E0E5
:1027800091E0DC018C91882F90E08270992700976E
:1027900011F00C942E018F859889009711F40C94F8
:1027A0002E019E01275F3E4F80E090E0A0EAB1E459
:1027B000F90180839183A283B3838E01035F1E4F4F
:1027C000CE01875F9E4F20E030E04AE755E4DC0110
:1027D0006D917D918D919C910E94321AC159DD4F6E
:1027E000688379838A839B83CF56D240C159DD4F5A
:1027F00088819981AA81BB81CF56D240F80180831C
:102800009183A283B383CE01835F9E4F20E030E0AB
:1028100040E85FE3DC016D917D918D919C910E9478
:10282000AC1988234CF4CE018F5E9E4F21E030E03E
:10283000FC0131832083A5C0CE01835F9E4F20E041
:102840003FEF4FE757E4DC016D917D918D919C91B5
:102850000E942D1A882309F00CF475C0CE01875F01
:102860009E4F20E030E040E251E4FC016081718144
:10287000828193810E94321ACD58DD4F688379831B
:102880008A839B83C357D240CD58DD4F888199817D
:10289000AA81BB81C357D240C55ADE4F8883998332
:1028A000AA83BB83CB55D1408E010F5E1E4FC55A04
:1028B000DE4F688179818A819B81CB55D1400E940E
:1028C000B119C958DD4F688379838A839B83C757C1
:1028D000D240C958DD4FE881F981C757D240D801AD
:1028E0001196FC93EE9326C0CE018D5E9E4F20E99B
:1028F00031E0DC012D933C93CE018D5E9E4FFC01B7
:10290000808191810197F1F79E012D5E3E4FD901A3
:102910008D939C930000CE018F5E9E4F9E012F5E93
:102920003E4FF9012081318121503109DC0111969E
:102930003C932E93CE018F5E9E4FFC01808191814E
:10294000009791F639C08E010F5E1E4FCE01835F56
:102950009E4FDC016D917D918D919C910E94B119EA
:10296000C558DD4F688379838A839B83CB57D240D8
:10297000C558DD4F28813981CB57D240F8013183CA
:102980002083CE018B5E9E4F9E012F5E3E4FD9016C
:102990002D913C91FC0131832083CE018B5E9E4FB3
:1029A000DC018D919C910197F1F79E012B5E3E4FCA
:1029B000F9019183808300001E8A1D8A188A1F8670
:1029C0008D890E94AE180C942E011F920F920FB6A3
:1029D0000F9211240BB60F922F938F939F93EF9327
:1029E000FF93CF93DF93CDB7DEB787E490E0FC0190
:1029F00080818823C9F488E490E0FC0180818823E9
:102A000099F485E290E0FC01208185E290E02F7E40
:102A1000FC01208381E390E0FC01208181E390E0D0
:102A20002F7DFC01208331C087E490E0FC01808190
:102A3000882399F081E390E0FC01208181E390E01C
:102A40002F7DFC01208385E290E0FC01208185E25E
:102A500090E02061FC01208318C088E490E0FC0134
:102A60008081882391F085E290E0FC01208185E25D
:102A700090E02F7EFC01208381E390E0FC01208127
:102A800081E390E02062FC0120830000DF91CF9180
:102A9000FF91EF919F918F912F910F900BBE0F900F
:102AA0000FBE0F901F9018951F920F920FB60F92A6
:102AB00011240BB60F922F938F939F93EF93FF9355
:102AC000CF93DF93CDB7DEB787E490E0FC01808140
:102AD0008F3F49F085E290E0FC01208185E290E0A3
:102AE0002F7EFC0120830000DF91CF91FF91EF91B9
:102AF0009F918F912F910F900BBE0F900FBE0F9053
:102B00001F9018951F920F920FB60F9211240BB6BB
:102B10000F922F938F939F93EF93FF93CF93DF9316
:102B2000CDB7DEB788E490E0FC0180818F3F49F0AB
:102B300081E390E0FC01208181E390E02F7DFC01A6
:102B400020830000DF91CF91FF91EF919F918F91B2
:102B50002F910F900BBE0F900FBE0F901F901895E6
:102B6000CF93DF93CDB7DEB784E290E0FC01208104
:102B700084E290E02061FC01208380E390E0FC018E
:102B8000208180E390E02062FC01208385E290E0D8
:102B9000FC01208185E290E02F7EFC01208381E30F
:102BA00090E0FC01208181E390E02F7DFC012083F7
:102BB00084E490E0FC01108285E490E023E0FC01D5
:102BC000208387E490E0FC01108288E490E0FC011F
:102BD00010828EE690E027E0FC01208378940000CC
:102BE000DF91CF910895CF93DF930F92CDB7DEB7EA
:102BF000898389818C39E4F18981843609F0C4F5AF
:102C000089818823DCF088E490E0FC0110828981CE
:102C1000082E000C990B2FEF289FA001299F500D23
:102C2000112424E630E0CA01B9010E942919CB0120
:102C30009C0187E490E0FC0120831AC087E490E0C7
:102C4000FC0110828981082E000C990B2FEF289F20
:102C5000A001299F500D11242CE93FEFCA01B901B1
:102C60000E942919CB019C0188E490E0FC0120839B
:102C700000000F90DF91CF9108951F920F920FB631
:102C80000F9211240BB60F922F938F939F93EF9374
:102C9000FF93CF93DF93CDB7DEB783EB90E0FC01DA
:102CA00080818823C9F484EB90E0FC018081882333
:102CB00099F482E091E0FC01208182E091E02F7B99
:102CC000FC01208381E390E0FC01208181E390E01E
:102CD0002F7BFC01208331C083EB90E0FC018081DD
:102CE000882399F081E390E0FC01208181E390E06A
:102CF0002F7BFC01208382E091E0FC01208182E0B7
:102D000091E02064FC01208318C084EB90E0FC017A
:102D10008081882391F082E091E0FC01208182E0B3
:102D200091E02F7BFC01208381E390E0FC01208176
:102D300081E390E02064FC0120830000DF91CF91CB
:102D4000FF91EF919F918F912F910F900BBE0F905C
:102D50000FBE0F901F9018951F920F920FB60F92F3
:102D600011240BB60F922F938F939F93EF93FF93A2
:102D7000CF93DF93CDB7DEB783EB90E0FC0180818A
:102D80008F3F49F082E091E0FC01208182E091E0F8
:102D90002F7BFC0120830000DF91CF91FF91EF9109
:102DA0009F918F912F910F900BBE0F900FBE0F90A0
:102DB0001F9018951F920F920FB60F9211240BB609
:102DC0000F922F938F939F93EF93FF93CF93DF9364
:102DD000CDB7DEB784EB90E0FC0180818F3F49F0F6
:102DE00081E390E0FC01208181E390E02F7BFC01F6
:102DF00020830000DF91CF91FF91EF919F918F9100
:102E00002F910F900BBE0F900FBE0F901F90189533
:102E1000CF93DF93CDB7DEB781E091E0FC01208155
:102E200081E091E02064FC01208380E390E0FC01DC
:102E3000208180E390E02064FC01208382E091E027
:102E4000FC01208182E091E02F7BFC01208381E363
:102E500090E0FC01208181E390E02F7BFC01208346
:102E600080EB90E0FC01108281EB90E023E0FC011C
:102E7000208383EB90E0FC01108284EB90E0FC0166
:102E8000108280E790E027E0FC0120837894000026
:102E9000DF91CF910895CF93DF930F92CDB7DEB737
:102EA000898389818C39E4F18981843609F0C4F5FC
:102EB00089818823DCF084EB90E0FC011082898119
:102EC000082E000C990B2FEF289FA001299F500D71
:102ED000112424E630E0CA01B9010E942919CB016E
:102EE0009C0183EB90E0FC0120831AC083EB90E00F
:102EF000FC0110828981082E000C990B2FEF289F6E
:102F0000A001299F500D11242CE93FEFCA01B901FE
:102F10000E942919CB019C0184EB90E0FC012083E5
:102F200000000F90DF91CF9108951F920F920FB67E
:102F30000F9211240BB60F922F938F939F93EF93C1
:102F4000FF93CF93DF93CDB7DEB788E890E0FC0125
:102F5000808191810097D1F48AE890E0FC01808122
:102F60009181009799F482E091E0FC01208182E058
:102F700091E02F7DFC01208381E390E0FC01208122
:102F800081E390E02F77FC01208333C088E890E054
:102F9000FC0180819181009799F081E390E0FC0130
:102FA000208181E390E02F77FC01208382E091E093
:102FB000FC01208182E091E02062FC01208319C0A5
:102FC0008AE890E0FC0180819181009791F082E095
:102FD00091E0FC01208182E091E02F7DFC012083C3
:102FE00081E390E0FC01208181E390E02068FC0116
:102FF00020830000DF91CF91FF91EF919F918F91FE
:103000002F910F900BBE0F900FBE0F901F90189531
:103010001F920F920FB60F9211240BB60F922F939F
:103020008F939F93EF93FF93CF93DF93CDB7DEB74B
:1030300088E890E0FC01808191818B34FFEF9F074D
:1030400049F082E091E0FC01208182E091E02F7D57
:10305000FC0120830000DF91CF91FF91EF919F91C0
:103060008F912F910F900BBE0F900FBE0F901F905E
:1030700018951F920F920FB60F9211240BB60F9254
:103080002F938F939F93EF93FF93CF93DF93CDB7BE
:10309000DEB78AE890E0FC01808191818F3F98073C
:1030A00049F081E390E0FC01208181E390E02F77FB
:1030B000FC0120830000DF91CF91FF91EF919F9160
:1030C0008F912F910F900BBE0F900FBE0F901F90FE
:1030D0001895CF93DF93CDB7DEB781E091E0FC0187
:1030E000208181E091E02062FC01208380E390E078
:1030F000FC01208180E390E02068FC01208382E0D5
:1031000091E0FC01208182E091E02F7DFC01208391
:1031100081E390E0FC01208181E390E02F77FC01C6
:10312000208380E890E0FC01108281E890E021E0BB
:10313000FC01208388E890E0FC01118210828AE87B
:1031400090E0FC01118210828FE690E027E0FC0104
:10315000208378940000DF91CF9108950F931F93FF
:10316000CF93DF9300D000D000D0CDB7DEB78983F6
:1031700089818C390CF461C08981843611F00CF09E
:103180005CC0898188236CF18AE890E0FC0111829F
:1031900010828981482F880F550B660B770B8FEFB4
:1031A0009FEFDC019A01AB010E945C196A837B836B
:1031B0008C839D8304E610E020E030E06A817B810F
:1031C0008C819D81A90198010E943D19DA01C901F4
:1031D000AC01BD0188E890E09A01FC0131832083B5
:1031E0002CC088E890E0FC01118210828981482F70
:1031F000880F550B660B770B8FEF9FEFDC019A0161
:10320000AB010E945C196E837F83888799870CE9E4
:103210001FEF2FEF3FEF6E817F8188859985A90190
:1032200098010E943D19DA01C901AC01BD018AE88B
:1032300090E09A01FC0131832083000029960FB6AB
:10324000F894DEBF0FBECDBFDF91CF911F910F91DC
:10325000089597FB072E16F4009407D077FD09D048
:103260000E94671907FC05D03EF4909581959F4F09
:103270000895709561957F4F0895052E97FB1EF474
:1032800000940E94541957FD07D00E947B1907FC37
:1032900003D04EF40C9454195095409530952195D7
:1032A0003F4F4F4F5F4F0895909580957095619572
:1032B0007F4F8F4F9F4F08950E949D19A59F900D9E
:1032C000B49F900DA49F800D911D11240895AA1BF9
:1032D000BB1B51E107C0AA1FBB1FA617B70710F001
:1032E000A61BB70B881F991F5A95A9F78095909533
:1032F000BC01CD010895A1E21A2EAA1BBB1BFD0142
:103300000DC0AA1FBB1FEE1FFF1FA217B307E407C4
:10331000F50720F0A21BB30BE40BF50B661F771F1C
:10332000881F991F1A9469F76095709580959095FC
:103330009B01AC01BD01CF010895A29FB001B39FD5
:10334000C001A39F700D811D1124911DB29F700DAE
:10335000811D1124911D08950E94E01908F481E057
:1033600008950E940C1A88F09F5798F0B92F99275A
:10337000B751B0F0E1F0660F771F881F991F1AF060
:10338000BA95C9F714C0B13091F00E94261AB1E085
:1033900008950C94261A672F782F8827B85F39F084
:1033A000B93FCCF3869577956795B395D9F73EF4F9
:1033B00090958095709561957F4F8F4F9F4F0895A1
:1033C000990F0008550FAA0BE0E8FEEF1616170636
:1033D000E807F907C0F012161306E407F50798F09E
:1033E000621B730B840B950B39F40A2661F0232BB7
:1033F000242B252B21F408950A2609F4A140A69533
:103400008FEF811D811D089557FD9058440F551F62
:1034100059F05F3F71F04795880F97FB991F61F056
:103420009F3F79F087950895121613061406551FCD
:10343000F2CF4695F1DF08C0161617061806991F39
:10344000F1CF86957105610508940895E894BB272E
:1034500066277727CB0197F908950E94E01908F4B1
:103460008FEF08950E94451A0C94B61A0E94A81A6C
:1034700038F00E94AF1A20F0952311F00C949F1A97
:103480000C94A51A11240C94271A0E94041A70F3A4
:10349000959FC1F3950F50E0551F629FF001729FF9
:1034A000BB27F00DB11D639FAA27F00DB11DAA1F08
:1034B000649F6627B00DA11D661F829F2227B00D55
:1034C000A11D621F739FB00DA11D621F839FA00DE0
:1034D000611D221F749F3327A00D611D231F849F30
:1034E000600D211D822F762F6A2F11249F57504087
:1034F0009AF0F1F088234AF0EE0FFF1FBB1F661F02
:10350000771F881F91505040A9F79E3F510580F0CA
:103510000C949F1A0C94271A5F3FE4F3983ED4F35F
:10352000869577956795B795F795E7959F5FC1F76E
:10353000FE2B880F911D9695879597F9089597F919
:103540009F6780E870E060E008959FEF80EC089549
:1035500000240A9416161706180609060895002472
:103560000A9412161306140605060895092E0394EC
:10357000000C11F4882352F0BB0F40F4BF2B11F460
:1035800060FF04C06F5F7F4F8F4F9F4F0895F89487
:02359000FFCF6B
:00000001FF
