:100000000C9472000C947E000C947E000C947E0084
:100010000C947E000C947E000C947E000C947E0068
:100020000C947E000C947E000C947E000C947E0058
:100030000C947E000C947E000C947E000C947E0048
:100040000C947E000C94E30A0C94130B0C947E0029
:100050000C94700A0C94EF000C941D010C94800019
:100060000C947E000C947E000C947E000C947E0018
:100070000C947E000C947E000C947E000C947E0008
:100080000C947E000C947E000C947E000C947E00F8
:100090000C947E000C947E000C947E000C947E00E8
:1000A0000C947E000C947E000C947E000C947E00D8
:1000B0000C947E000C947E000C947E000C947E00C8
:1000C0000C947E000C947E000C947E000C947E00B8
:1000D0000C947E000C947E000C947E000C947E00A8
:1000E0000C947E0011241FBECFEFD1E2DEBFCDBF46
:1000F00000E00CBF0E9424020C94120D0C9400002E
:100100001F920F920FB60F9211240BB60F922F93DE
:100110008F939F93EF93FF93CF93DF93CDB7DEB78A
:1001200087E490E0FC0180818823C9F488E490E0B2
:10013000FC018081882399F485E290E0FC01208114
:1001400085E290E02F7EFC01208381E390E0FC01BA
:10015000208181E390E02F7DFC01208331C087E482
:1001600090E0FC018081882399F081E390E0FC011C
:10017000208181E390E02F7DFC01208385E290E0E7
:10018000FC01208185E290E02061FC01208318C001
:1001900088E490E0FC018081882391F085E290E082
:1001A000FC01208185E290E02F7EFC01208381E329
:1001B00090E0FC01208181E390E02062FC0120833B
:1001C0000000DF91CF91FF91EF919F918F912F913F
:1001D0000F900BBE0F900FBE0F901F9018951F929F
:1001E0000F920FB60F9211240BB60F922F938F938D
:1001F0009F93EF93FF93CF93DF93CDB7DEB787E461
:1002000090E0FC0180818F3F49F085E290E0FC01A5
:10021000208185E290E02F7EFC0120830000DF91A9
:10022000CF91FF91EF919F918F912F910F900BBEE6
:100230000F900FBE0F901F9018951F920F920FB640
:100240000F9211240BB60F922F938F939F93EF93DE
:10025000FF93CF93DF93CDB7DEB788E490E0FC0146
:1002600080818F3F49F081E390E0FC01208181E3B0
:1002700090E02F7DFC0120830000DF91CF91FF9162
:10028000EF919F918F912F910F900BBE0F900FBE0A
:100290000F901F901895CF93DF93CDB7DEB784E210
:1002A00090E0FC01208184E290E02061FC01208349
:1002B00080E390E0FC01208180E390E02062FC017B
:1002C000208385E290E0FC01208185E290E02F7E92
:1002D000FC01208381E390E0FC01208181E390E038
:1002E0002F7DFC01208384E490E0FC01108285E4F2
:1002F00090E023E0FC01208387E490E0FC01108281
:1003000088E490E0FC0110828EE690E027E0FC019A
:10031000208378940000DF91CF910895CF93DF93ED
:100320000F92CDB7DEB7898389818C39E4F1898159
:10033000843609F0C4F589818823DCF088E490E0F4
:10034000FC0110828981082E000C990B2FEF289F49
:10035000A001299F500D112424E630E0CA01B90103
:100360000E94CF0BCB019C0187E490E0FC0120832D
:100370001AC087E490E0FC0110828981082E000CED
:10038000990B2FEF289FA001299F500D11242CE9D4
:100390003FEFCA01B9010E94CF0BCB019C0188E459
:1003A00090E0FC01208300000F90DF91CF91089531
:1003B000CF93DF93CDB7DEB70E944B010E94410B74
:1003C0000E94E6010000DF91CF910895CF93DF9363
:1003D000CDB7DEB78AE290E0FC0120818AE290E0AE
:1003E0002E7FFC0120838AE290E0FC0120818AE2DA
:1003F00090E02D7FFC0120838AE290E0FC012081C7
:100400008AE290E02B7FFC0120838AE290E0FC01ED
:1004100020818AE290E0277FFC01208381E091E047
:10042000FC01208181E091E02E7FFC01208381E0AE
:1004300091E0FC01208181E091E02D7FFC0120838F
:100440000000DF91CF9108950F931F93CF93DF9317
:10045000CDB7DEB7C252D1400FB6F894DEBF0FBEA3
:10046000CDBF0E94D8011A8619861C861B861E865F
:100470001D861A8219821C821B82188A1F861A8A7C
:10048000198A1E821D8218861F8289E290E0DC0193
:100490008C91882F90E081709927009709F4C8C04B
:1004A00089819A81009709F0C3C080E090E0A0EABA
:1004B000B1E48B8B9C8BAD8BBE8B20E030E04AE7A8
:1004C00055E46B897C898D899E890E947D0CCD5570
:1004D000DF4F688379838A839B83C35AD040CD558D
:1004E000DF4F88819981AA81BB81C35AD0408F8B0D
:1004F000988FA98FBA8F20E030E040E85FE36F89E2
:10050000788D898D9A8D0E94F70B88232CF481E0D9
:1005100090E09C8F8B8F76C020E03FEF4FE757E451
:100520006F89788D898D9A8D0E94780C882309F0C7
:100530000CF452C020E030E040E251E46B897C8949
:100540008D899E890E947D0CC955DF4F6883798310
:100550008A839B83C75AD040C955DF4F88819981D0
:10056000AA81BB81C75AD040CD57DF4F888399837A
:10057000AA83BB83C358D040CD57DF4F68817981B0
:100580008A819B81C358D0400E94FC0BC555DF4F28
:10059000688379838A839B83CB5AD040C555DF4FCC
:1005A000A881B981CB5AD040BC8FAB8F10C080E9F5
:1005B00091E09E8F8D8F8D8D9E8D0197F1F79E8F8F
:1005C0008D8F00008B8D9C8D01979C8F8B8F8B8DD9
:1005D0009C8D009761F721C06F89788D898D9A8DE8
:1005E0000E94FC0BC155DF4F688379838A839B830C
:1005F000CF5AD040C155DF4FE881F981CF5AD04062
:10060000FC8FEB8F8B8D9C8D98A38F8F8F8D98A1F6
:100610000197F1F798A38F8F000084E690E09A8706
:10062000898781E090E09A83898389850E948E0181
:1006300089E290E0DC018C91882F90E0827099270C
:10064000009709F4C8C08B819C81009709F0C3C052
:1006500080E090E0A0EAB1E489A39AA3ABA3BCA395
:1006600020E030E04AE755E469A17AA18BA19CA182
:100670000E947D0CCD54DF4F688379838A839B83EE
:10068000C35BD040CD54DF4F88819981AA81BB8163
:10069000C35BD0408DA39EA3AFA3B8A720E030E0FA
:1006A00040E85FE36DA17EA18FA198A50E94F70BA2
:1006B00088232CF481E090E09AA789A776C020E0F7
:1006C0003FEF4FE757E46DA17EA18FA198A50E944F
:1006D000780C882309F00CF452C020E030E040E2AE
:1006E00051E469A17AA18BA19CA10E947D0CC954FF
:1006F000DF4F688379838A839B83C75BD040C9546B
:10070000DF4F88819981AA81BB81C75BD040C957DF
:10071000DF4F88839983AA83BB83C758D040C957CA
:10072000DF4F688179818A819B81C758D0400E94C0
:10073000FC0BC554DF4F688379838A839B83CB5B33
:10074000D040C554DF4FA881B981CB5BD040BAA758
:10075000A9A710C080E991E09CA78BA78BA59CA5B9
:100760000197F1F79CA78BA7000089A59AA501978F
:100770009AA789A789A59AA5009761F721C06DA1BD
:100780007EA18FA198A50E94FC0BC154DF4F688306
:1007900079838A839B83CF5BD040C154DF4FE8814C
:1007A000F981CF5BD040FAA7E9A789A59AA59EA7B2
:1007B0008DA78DA59EA50197F1F79EA78DA7000097
:1007C0008CE99FEF9A87898781E090E09C838B83F7
:1007D00089850E948E0189E290E0DC018C91882F4E
:1007E00090E081709927009709F0C4C089819A81AF
:1007F000009709F4BFC080E090E0A0EAB1E48FA7C1
:1008000098ABA9ABBAAB20E030E04AE755E46FA55E
:1008100078A989A99AA90E947D0CCD53DF4F6883DE
:1008200079838A839B83C35CD040CD53DF4F88811B
:100830009981AA81BB81C35CD0408BAB9CABADAB33
:10084000BEAB20E030E040E85FE36BA97CA98DA956
:100850009EA90E94F70B88232CF481E090E098AFCA
:100860008FAB76C020E03FEF4FE757E46BA97CA940
:100870008DA99EA90E94780C882309F00CF452C01F
:1008800020E030E040E251E46FA578A989A99AA957
:100890000E947D0CC953DF4F688379838A839B83D1
:1008A000C75CD040C953DF4F88819981AA81BB8141
:1008B000C75CD040C557DF4F88839983AA83BB8329
:1008C000CB58D040C557DF4F688179818A819B81A1
:1008D000CB58D0400E94FC0BC553DF4F688379830F
:1008E0008A839B83CB5CD040C553DF4FA881B981FD
:1008F000CB5CD040B8AFAFAB10C080E991E09AAF0D
:1009000089AF89AD9AAD0197F1F79AAF89AF000031
:100910008FA998AD019798AF8FAB8FA998AD00972D
:1009200061F721C06BA97CA98DA99EA90E94FC0B2F
:10093000C153DF4F688379838A839B83CF5CD04028
:10094000C153DF4FE881F981CF5CD040F8AFEFAB06
:100950008FA998AD9CAF8BAF8BAD9CAD0197F1F794
:100960009CAF8BAF00001A8619861A82198289857E
:100970000E948E0189E290E0DC018C91882F90E04A
:1009800082709927009709F015C18B819C8100978F
:1009900009F410C180E090E0A0EAB1E49E01235C7C
:1009A0003F4FF90180839183A283B3838E010F5B54
:1009B0001F4F20E030E04AE755E4CE01CD96DC0140
:1009C0006D917D918D919C910E947D0CCD52DF4F58
:1009D000688379838A839B83C35DD040CD52DF4F88
:1009E00088819981AA81BB81C35DD040F801808351
:1009F0009183A283B383CE018F5B9F4F20E030E0D1
:100A000040E85FE3DC016D917D918D919C910E94A6
:100A1000F70B88234CF4CE018B5B9F4F21E030E035
:100A2000FC0131832083A4C0CE018F5B9F4F20E067
:100A30003FEF4FE757E4DC016D917D918D919C91E3
:100A40000E94780C882309F00CF474C020E030E098
:100A500040E251E4CE01CD96FC016081718182813A
:100A600093810E947D0CC952DF4F688379838A830A
:100A70009B83C75DD040C952DF4F88819981AA818D
:100A8000BB81C75DD040C157DF4F88839983AA835C
:100A9000BB83CF58D0408E010B5B1F4FC157DF4F38
:100AA000688179818A819B81CF58D0400E94FC0B5C
:100AB000C552DF4F688379838A839B83CB5DD040A7
:100AC000C552DF4FE881F981CB5DD040D801119646
:100AD000FC93EE9326C0CE01895B9F4F20E931E065
:100AE000DC012D933C93CE01895B9F4FFC018081FB
:100AF00091810197F1F79E01295B3F4FD9018D93B9
:100B00009C930000CE018B5B9F4F9E012B5B3F4F60
:100B1000F9012081318121503109DC0111963C938A
:100B20002E93CE018B5B9F4FFC01808191810097BA
:100B300091F639C08E010B5B1F4FCE018F5B9F4F2B
:100B4000DC016D917D918D919C910E94FC0BC152B5
:100B5000DF4F688379838A839B83CF5DD040C15206
:100B6000DF4F88819981CF5DD040F80191838083E8
:100B7000CE01875B9F4F9E012B5B3F4FD9012D918B
:100B80003C91FC0131832083CE01875B9F4FDC01C8
:100B90008D919C910197F1F79E01275B3F4FF901E1
:100BA0009183808300001A8619861C821B828985A6
:100BB0000E948E0189E290E0DC018C91882F90E008
:100BC00084709927009709F41CC18D819E8100973C
:100BD00009F017C19E01255B3F4F80E090E0A0EA3D
:100BE000B1E4F90180839183A283B3838E01015B19
:100BF0001F4FCE01855B9F4F20E030E04AE755E470
:100C0000DC016D917D918D919C910E947D0CCD5167
:100C1000DF4F688379838A839B83C35ED040CD5145
:100C2000DF4F88819981AA81BB81C35ED040F801E2
:100C300080839183A283B383CE01815B9F4F20E0A9
:100C400030E040E85FE3DC016D917D918D919C91F6
:100C50000E94F70B88234CF4CE018D5A9F4F21E060
:100C600030E0FC0131832083A5C0CE01815B9F4F22
:100C700020E03FEF4FE757E4DC016D917D918D91CE
:100C80009C910E94780C882309F00CF475C0CE0169
:100C9000855B9F4F20E030E040E251E4FC01608141
:100CA0007181828193810E947D0CC951DF4F6883DD
:100CB00079838A839B83C75ED040C951DF4F888187
:100CC0009981AA81BB81C75ED040CD56DF4F888312
:100CD0009983AA83BB83C359D0408E010D5A1F4FFD
:100CE000CD56DF4F688179818A819B81C359D0407D
:100CF0000E94FC0BC551DF4F688379838A839B83F5
:100D0000CB5ED040C551DF4FE881F981CB5ED0404A
:100D1000D8011196FC93EE9326C0CE018B5A9F4FBB
:100D200020E931E0DC012D933C93CE018B5A9F4F9B
:100D3000FC01808191810197F1F79E012B5A3F4F71
:100D4000D9018D939C930000CE018D5A9F4F9E0137
:100D50002D5A3F4FF9012081318121503109DC01A9
:100D600011963C932E93CE018D5A9F4FFC018081AA
:100D70009181009791F639C08E010D5A1F4FCE0117
:100D8000815B9F4FDC016D917D918D919C910E94C3
:100D9000FC0BC151DF4F688379838A839B83CF5ECD
:100DA000D040C151DF4F88819981CF5ED040F8019A
:100DB00091838083CE01895A9F4F9E012D5A3F4FC8
:100DC000D9012D913C91FC0131832083CE01895AB8
:100DD0009F4FDC018D919C910197F1F79E01295A5B
:100DE0003F4FF90191838083000084E690E09E8765
:100DF0008D8781E090E09E838D838D859E850E9406
:100E0000850B89E290E0DC018C91882F90E088705E
:100E10009927009709F41CC18F819885009709F0E4
:100E200017C19E01275A3F4F80E090E0A0EAB1E44D
:100E3000F90180839183A283B3838E01035A1F4FEC
:100E4000CE01875A9F4F20E030E04AE755E4DC01AD
:100E50006D917D918D919C910E947D0CCD50DF4FC5
:100E6000688379838A839B83C35FD040CD50DF4FF3
:100E700088819981AA81BB81C35FD040F8018083BA
:100E80009183A283B383CE01835A9F4F20E030E049
:100E900040E85FE3DC016D917D918D919C910E9412
:100EA000F70B88234CF4CE018F599F4F21E030E09F
:100EB000FC0131832083A5C0CE01835A9F4F20E0DF
:100EC0003FEF4FE757E4DC016D917D918D919C914F
:100ED0000E94780C882309F00CF475C0CE01875A63
:100EE0009F4F20E030E040E251E4FC0160817181DD
:100EF000828193810E947D0CC950DF4F6883798382
:100F00008A839B83C75FD040C950DF4F8881998116
:100F1000AA81BB81C75FD040C956DF4F88839983C0
:100F2000AA83BB83C759D0408E010F591F4FC956A2
:100F3000DF4F688179818A819B81C759D0400E94A7
:100F4000FC0BC550DF4F688379838A839B83CB5F1B
:100F5000D040C550DF4FE881F981CB5FD040D80148
:100F60001196FC93EE9326C0CE018D599F4F20E938
:100F700031E0DC012D933C93CE018D599F4FFC0154
:100F8000808191810197F1F79E012D593F4FD90141
:100F90008D939C930000CE018F599F4F9E012F5936
:100FA0003F4FF9012081318121503109DC01119637
:100FB0003C932E93CE018F599F4FFC0180819181EC
:100FC000009791F639C08E010F591F4FCE01835AF9
:100FD0009F4FDC016D917D918D919C910E94FC0B46
:100FE000C150DF4F688379838A839B83CF5FD04072
:100FF000C150DF4F88819981CF5FD040F801918344
:101000008083CE018B599F4F9E012F593F4FD901AD
:101010002D913C91FC0131832083CE018B599F4F50
:10102000DC018D919C910197F1F79E012B593F4F67
:10103000F9019183808300008CE99FEF9E878D8763
:1010400081E090E098878F838D859E850E94850B37
:1010500089E290E0DC018C91882F90E084709927E0
:10106000009709F018C18D819E81009709F413C182
:101070009E0129593F4F80E090E0A0EAB1E4F901D8
:1010800080839183A283B3838E0105591F4FCE01C4
:1010900089599F4F20E030E04AE755E4DC016D912B
:1010A0007D918D919C910E947D0CCD5FDE4F688378
:1010B00079838A839B83C350D140CD5FDE4F888183
:1010C0009981AA81BB81C350D140F801808391836B
:1010D000A283B383CE0185599F4F20E030E040E8E2
:1010E0005FE3DC016D917D918D919C910E94F70BE6
:1010F00088234CF4CE0181599F4F21E030E0FC0160
:1011000031832083A5C0CE0185599F4F20E03FEF5A
:101110004FE757E4DC016D917D918D919C910E9488
:10112000780C882309F00CF475C0CE0189599F4FC3
:1011300020E030E040E251E4FC0160817181828175
:1011400093810E947D0CC95FDE4F688379838A8317
:101150009B83C750D140C95FDE4F88819981AA81A6
:10116000BB81C750D140C556DF4F88839983AA837E
:10117000BB83CB59D0408E0101591F4FC556DF4F5D
:10118000688179818A819B81CB59D0400E94FC0B78
:10119000C55FDE4F688379838A839B83CB50D140C0
:1011A000C55FDE4FE881F981CB50D140D80111965F
:1011B000FC93EE9326C0CE018F589F4F20E931E07B
:1011C000DC012D933C93CE018F589F4FFC01808111
:1011D00091810197F1F79E012F583F4FD9018D93CF
:1011E0009C930000CE0181599F4F9E0121593F4F92
:1011F000F9012081318121503109DC0111963C93A4
:101200002E93CE0181599F4FFC01808191810097DF
:1012100091F639C08E0101591F4FCE0185599F4F5C
:10122000DC016D917D918D919C910E94FC0BC15FC1
:10123000DE4F688379838A839B83CF50D140C15F1F
:10124000DE4F88819981CF50D140F801918380830E
:10125000CE018D589F4F9E0121593F4FD9012D91AD
:101260003C91FC0131832083CE018D589F4FDC01DE
:101270008D919C910197F1F79E012D583F4FF901F7
:101280009183808300001E861D861E821D828D85AF
:101290009E850E94850B89E290E0DC018C91882F6D
:1012A00090E088709927009709F0EFC88F819885A2
:1012B000009709F4EAC89E012B583F4F80E090E068
:1012C000A0EAB1E4F90180839183A283B3838E0104
:1012D00007581F4FCE018B589F4F20E030E04AE760
:1012E00055E4DC016D917D918D919C910E947D0C66
:1012F000CD5EDE4F688379838A839B83C351D1405F
:10130000CD5EDE4F88819981AA81BB81C351D140D6
:10131000F80180839183A283B383CE0187589F4FC6
:1013200020E030E040E85FE3DC016D917D918D913C
:101330009C910E94F70B88234CF4CE0183589F4F59
:1013400021E030E0FC0131832083A5C0CE01875825
:101350009F4F20E03FEF4FE757E4DC016D917D9117
:101360008D919C910E94780C882309F00CF475C033
:10137000CE018B589F4F20E030E040E251E4FC0169
:1013800060817181828193810E947D0CC95EDE4FF4
:10139000688379838A839B83C751D140C95EDE4FBE
:1013A00088819981AA81BB81C751D140C156DF4F45
:1013B00088839983AA83BB83CF59D0408E01035879
:1013C0001F4FC156DF4F688179818A819B81CF5938
:1013D000D0400E94FC0BC55EDE4F688379838A8310
:1013E0009B83CB51D140C55EDE4FE881F981CB5163
:1013F000D140D8011196FC93EE9326C0CE018158BE
:101400009F4F20E931E0DC012D933C93CE018158C0
:101410009F4FFC01808191810197F1F79E01215836
:101420003F4FD9018D939C930000CE0183589F4F6D
:101430009E0123583F4FF90120813181215031090C
:10144000DC0111963C932E93CE0183589F4FFC01F3
:1014500080819181009791F639C08E0103581F4F0A
:10146000CE0187589F4FDC016D917D918D919C91AC
:101470000E94FC0BC15EDE4F688379838A839B8365
:10148000CF51D140C15EDE4F88819981CF51D1408B
:10149000F80191838083CE018F579F4F9E0123587F
:1014A0003F4FD9012D913C91FC0131832083CE0126
:1014B0008F579F4FDC018D919C910197F1F79E0111
:1014C0002F573F4FF9019183808300001E861D86B0
:1014D00018861F828D859E850E94850B0C9445027F
:1014E0001F920F920FB60F9211240BB60F922F93EB
:1014F0008F939F93EF93FF93CF93DF93CDB7DEB797
:1015000088E890E0FC01808191810097D1F48AE81D
:1015100090E0FC0180819181009799F482E091E054
:10152000FC01208182E091E02F7DFC01208381E39A
:1015300090E0FC01208181E390E02F77FC01208383
:1015400033C088E890E0FC0180819181009799F098
:1015500081E390E0FC01208181E390E02F77FC01A2
:10156000208382E091E0FC01208182E091E0206212
:10157000FC01208319C08AE890E0FC018081918100
:10158000009791F082E091E0FC01208182E091E0FF
:101590002F7DFC01208381E390E0FC01208181E329
:1015A00090E02068FC0120830000DF91CF91FF9143
:1015B000EF919F918F912F910F900BBE0F900FBEC7
:1015C0000F901F9018951F920F920FB60F92112433
:1015D0000BB60F922F938F939F93EF93FF93CF931D
:1015E000DF93CDB7DEB788E890E0FC018081918180
:1015F0008F3F910549F082E091E0FC01208182E07B
:1016000091E02F7DFC0120830000DF91CF91FF91BD
:10161000EF919F918F912F910F900BBE0F900FBE66
:101620000F901F9018951F920F920FB60F921124D2
:101630000BB60F922F938F939F93EF93FF93CF93BC
:10164000DF93CDB7DEB784EB90E0FC0180818F3F64
:1016500049F081E390E0FC01208181E390E02F7765
:10166000FC0120830000DF91CF91FF91EF919F91CA
:101670008F912F910F900BBE0F900FBE0F901F9068
:101680001895CF93DF93CDB7DEB781E091E0FC01F1
:10169000208181E091E02062FC01208380E390E0E2
:1016A000FC01208180E390E02068FC01208382E03F
:1016B00091E0FC01208182E091E02F7DFC012083FC
:1016C00081E390E0FC01208181E390E02F77FC0131
:1016D000208380E890E0FC01108281E890E0FC012A
:1016E000108288E890E0FC01118210828AE890E084
:1016F000FC01118210828FE690E027E0FC0120833C
:1017000078940000DF91CF910895CF93DF930F92EB
:10171000CDB7DEB7898389818C39E4F1898184363C
:1017200009F0C4F589818823DCF084EB90E0FC01AA
:1017300010828981082E000C990B2FEF289FA001A1
:10174000299F500D112424E630E0CA01B9010E94FE
:10175000CF0BCB019C0183EB90E0FC0120831AC0EE
:1017600083EB90E0FC0110828981082E000C990B1C
:101770002FEF289FA001299F500D11242CE93FEF46
:10178000CA01B9010E94CF0BCB019C0184EB90E010
:10179000FC01208300000F90DF91CF91089597FB0B
:1017A000072E16F4009407D077FD09D00E94E30BB2
:1017B00007FC05D03EF4909581959F4F0895709554
:1017C00061957F4F0895AA1BBB1B51E107C0AA1F5B
:1017D000BB1FA617B70710F0A61BB70B881F991FD2
:1017E0005A95A9F780959095BC01CD0108950E9466
:1017F0002B0C08F481E008950E94570C88F09F5745
:1018000098F0B92F9927B751B0F0E1F0660F771F24
:10181000881F991F1AF0BA95C9F714C0B13091F01A
:101820000E94710CB1E008950C94710C672F782F11
:101830008827B85F39F0B93FCCF3869577956795DF
:10184000B395D9F73EF490958095709561957F4F4B
:101850008F4F9F4F0895990F0008550FAA0BE0E88E
:10186000FEEF16161706E807F907C0F01216130662
:10187000E407F50798F0621B730B840B950B39F4A2
:101880000A2661F0232B242B252B21F408950A2608
:1018900009F4A140A6958FEF811D811D089557FD84
:1018A0009058440F551F59F05F3F71F04795880FCE
:1018B00097FB991F61F09F3F79F087950895121665
:1018C00013061406551FF2CF4695F1DF08C0161611
:1018D00017061806991FF1CF8695710561050894C2
:1018E0000895E894BB2766277727CB0197F90895D9
:1018F0000E942B0C08F48FEF08950E94900C0C941A
:10190000010D0E94F30C38F00E94FA0C20F0952390
:1019100011F00C94EA0C0C94F00C11240C94720C41
:101920000E944F0C70F3959FC1F3950F50E0551F27
:10193000629FF001729FBB27F00DB11D639FAA2724
:10194000F00DB11DAA1F649F6627B00DA11D661F73
:10195000829F2227B00DA11D621F739FB00DA11D94
:10196000621F839FA00D611D221F749F3327A00D4E
:10197000611D231F849F600D211D822F762F6A2FEA
:1019800011249F5750409AF0F1F088234AF0EE0F4F
:10199000FF1FBB1F661F771F881F91505040A9F77C
:1019A0009E3F510580F00C94EA0C0C94720C5F3F42
:1019B000E4F3983ED4F3869577956795B795F795B8
:1019C000E7959F5FC1F7FE2B880F911D9695879530
:1019D00097F9089597F99F6780E870E060E00895AF
:1019E0009FEF80EC089500240A9416161706180637
:1019F0000906089500240A94121613061406050613
:101A00000895092E0394000C11F4882352F0BB0FA3
:101A100040F4BF2B11F460FF04C06F5F7F4F8F4F06
:081A20009F4F0895F894FFCFD9
:00000001FF
